{
  "_format": "hh-sol-artifact-1",
  "contractName": "FundGuard",
  "sourceName": "contracts/FundGuard.sol",
  "abi": [
    {
      "inputs": [
        {
          "internalType": "uint256",
          "name": "_initialBudget",
          "type": "uint256"
        }
      ],
      "stateMutability": "nonpayable",
      "type": "constructor"
    },
    {
      "inputs": [
        {
          "internalType": "address",
          "name": "owner",
          "type": "address"
        }
      ],
      "name": "OwnableInvalidOwner",
      "type": "error"
    },
    {
      "inputs": [
        {
          "internalType": "address",
          "name": "account",
          "type": "address"
        }
      ],
      "name": "OwnableUnauthorizedAccount",
      "type": "error"
    },
    {
      "inputs": [],
      "name": "ReentrancyGuardReentrantCall",
      "type": "error"
    },
    {
      "anonymous": false,
      "inputs": [
        {
          "indexed": false,
          "internalType": "uint256",
          "name": "newTotalBudget",
          "type": "uint256"
        }
      ],
      "name": "BudgetUpdated",
      "type": "event"
    },
    {
      "anonymous": false,
      "inputs": [
        {
          "indexed": true,
          "internalType": "address",
          "name": "member",
          "type": "address"
        },
        {
          "indexed": false,
          "internalType": "uint256",
          "name": "points",
          "type": "uint256"
        },
        {
          "indexed": false,
          "internalType": "string",
          "name": "reason",
          "type": "string"
        }
      ],
      "name": "CivicPointsAwarded",
      "type": "event"
    },
    {
      "anonymous": false,
      "inputs": [
        {
          "indexed": true,
          "internalType": "uint256",
          "name": "milestoneId",
          "type": "uint256"
        },
        {
          "indexed": false,
          "internalType": "uint256",
          "name": "amount",
          "type": "uint256"
        },
        {
          "indexed": false,
          "internalType": "address",
          "name": "recipient",
          "type": "address"
        }
      ],
      "name": "FundsReleased",
      "type": "event"
    },
    {
      "anonymous": false,
      "inputs": [
        {
          "indexed": true,
          "internalType": "address",
          "name": "member",
          "type": "address"
        },
        {
          "indexed": false,
          "internalType": "uint256",
          "name": "timestamp",
          "type": "uint256"
        }
      ],
      "name": "MemberRegistered",
      "type": "event"
    },
    {
      "anonymous": false,
      "inputs": [
        {
          "indexed": true,
          "internalType": "uint256",
          "name": "milestoneId",
          "type": "uint256"
        },
        {
          "indexed": true,
          "internalType": "uint256",
          "name": "proposalId",
          "type": "uint256"
        },
        {
          "indexed": false,
          "internalType": "string",
          "name": "title",
          "type": "string"
        }
      ],
      "name": "MilestoneCreated",
      "type": "event"
    },
    {
      "anonymous": false,
      "inputs": [
        {
          "indexed": true,
          "internalType": "uint256",
          "name": "milestoneId",
          "type": "uint256"
        },
        {
          "indexed": true,
          "internalType": "address",
          "name": "verifier",
          "type": "address"
        },
        {
          "indexed": false,
          "internalType": "bool",
          "name": "approved",
          "type": "bool"
        }
      ],
      "name": "MilestoneVerified",
      "type": "event"
    },
    {
      "anonymous": false,
      "inputs": [
        {
          "indexed": true,
          "internalType": "address",
          "name": "previousOwner",
          "type": "address"
        },
        {
          "indexed": true,
          "internalType": "address",
          "name": "newOwner",
          "type": "address"
        }
      ],
      "name": "OwnershipTransferred",
      "type": "event"
    },
    {
      "anonymous": false,
      "inputs": [
        {
          "indexed": true,
          "internalType": "uint256",
          "name": "proposalId",
          "type": "uint256"
        },
        {
          "indexed": true,
          "internalType": "address",
          "name": "proposer",
          "type": "address"
        },
        {
          "indexed": false,
          "internalType": "string",
          "name": "title",
          "type": "string"
        },
        {
          "indexed": false,
          "internalType": "uint256",
          "name": "amount",
          "type": "uint256"
        }
      ],
      "name": "ProposalCreated",
      "type": "event"
    },
    {
      "anonymous": false,
      "inputs": [
        {
          "indexed": true,
          "internalType": "uint256",
          "name": "proposalId",
          "type": "uint256"
        },
        {
          "indexed": false,
          "internalType": "bool",
          "name": "approved",
          "type": "bool"
        }
      ],
      "name": "ProposalExecuted",
      "type": "event"
    },
    {
      "anonymous": false,
      "inputs": [
        {
          "indexed": true,
          "internalType": "uint256",
          "name": "proposalId",
          "type": "uint256"
        },
        {
          "indexed": true,
          "internalType": "address",
          "name": "voter",
          "type": "address"
        },
        {
          "indexed": false,
          "internalType": "bool",
          "name": "support",
          "type": "bool"
        }
      ],
      "name": "VoteCast",
      "type": "event"
    },
    {
      "inputs": [],
      "name": "MIN_CIVIC_POINTS_TO_PROPOSE",
      "outputs": [
        {
          "internalType": "uint256",
          "name": "",
          "type": "uint256"
        }
      ],
      "stateMutability": "view",
      "type": "function"
    },
    {
      "inputs": [],
      "name": "POINTS_FOR_PROPOSAL",
      "outputs": [
        {
          "internalType": "uint256",
          "name": "",
          "type": "uint256"
        }
      ],
      "stateMutability": "view",
      "type": "function"
    },
    {
      "inputs": [],
      "name": "POINTS_FOR_VERIFICATION",
      "outputs": [
        {
          "internalType": "uint256",
          "name": "",
          "type": "uint256"
        }
      ],
      "stateMutability": "view",
      "type": "function"
    },
    {
      "inputs": [],
      "name": "POINTS_FOR_VOTING",
      "outputs": [
        {
          "internalType": "uint256",
          "name": "",
          "type": "uint256"
        }
      ],
      "stateMutability": "view",
      "type": "function"
    },
    {
      "inputs": [],
      "name": "VOTING_PERIOD",
      "outputs": [
        {
          "internalType": "uint256",
          "name": "",
          "type": "uint256"
        }
      ],
      "stateMutability": "view",
      "type": "function"
    },
    {
      "inputs": [
        {
          "internalType": "string",
          "name": "_title",
          "type": "string"
        },
        {
          "internalType": "string",
          "name": "_description",
          "type": "string"
        },
        {
          "internalType": "uint256",
          "name": "_amount",
          "type": "uint256"
        }
      ],
      "name": "createProposal",
      "outputs": [],
      "stateMutability": "nonpayable",
      "type": "function"
    },
    {
      "inputs": [],
      "name": "emergencyWithdraw",
      "outputs": [],
      "stateMutability": "nonpayable",
      "type": "function"
    },
    {
      "inputs": [
        {
          "internalType": "uint256",
          "name": "_proposalId",
          "type": "uint256"
        }
      ],
      "name": "executeProposal",
      "outputs": [],
      "stateMutability": "nonpayable",
      "type": "function"
    },
    {
      "inputs": [],
      "name": "getBudgetInfo",
      "outputs": [
        {
          "internalType": "uint256",
          "name": "total",
          "type": "uint256"
        },
        {
          "internalType": "uint256",
          "name": "spent",
          "type": "uint256"
        },
        {
          "internalType": "uint256",
          "name": "remaining",
          "type": "uint256"
        }
      ],
      "stateMutability": "view",
      "type": "function"
    },
    {
      "inputs": [
        {
          "internalType": "address",
          "name": "_member",
          "type": "address"
        }
      ],
      "name": "getMember",
      "outputs": [
        {
          "internalType": "bool",
          "name": "isRegistered",
          "type": "bool"
        },
        {
          "internalType": "uint256",
          "name": "joinedAt",
          "type": "uint256"
        },
        {
          "internalType": "uint256",
          "name": "civicPoints",
          "type": "uint256"
        },
        {
          "internalType": "uint256",
          "name": "proposalsCreated",
          "type": "uint256"
        },
        {
          "internalType": "uint256",
          "name": "votescast",
          "type": "uint256"
        },
        {
          "internalType": "uint256",
          "name": "milestonesVerified",
          "type": "uint256"
        }
      ],
      "stateMutability": "view",
      "type": "function"
    },
    {
      "inputs": [
        {
          "internalType": "uint256",
          "name": "_milestoneId",
          "type": "uint256"
        }
      ],
      "name": "getMilestone",
      "outputs": [
        {
          "internalType": "uint256",
          "name": "id",
          "type": "uint256"
        },
        {
          "internalType": "uint256",
          "name": "proposalId",
          "type": "uint256"
        },
        {
          "internalType": "string",
          "name": "title",
          "type": "string"
        },
        {
          "internalType": "string",
          "name": "description",
          "type": "string"
        },
        {
          "internalType": "bool",
          "name": "verified",
          "type": "bool"
        },
        {
          "internalType": "address",
          "name": "verifier",
          "type": "address"
        },
        {
          "internalType": "uint256",
          "name": "verifiedAt",
          "type": "uint256"
        },
        {
          "internalType": "uint256",
          "name": "fundsToRelease",
          "type": "uint256"
        },
        {
          "internalType": "bool",
          "name": "fundsReleased",
          "type": "bool"
        }
      ],
      "stateMutability": "view",
      "type": "function"
    },
    {
      "inputs": [
        {
          "internalType": "uint256",
          "name": "_proposalId",
          "type": "uint256"
        }
      ],
      "name": "getProposal",
      "outputs": [
        {
          "internalType": "uint256",
          "name": "id",
          "type": "uint256"
        },
        {
          "internalType": "string",
          "name": "title",
          "type": "string"
        },
        {
          "internalType": "string",
          "name": "description",
          "type": "string"
        },
        {
          "internalType": "uint256",
          "name": "amount",
          "type": "uint256"
        },
        {
          "internalType": "address",
          "name": "proposer",
          "type": "address"
        },
        {
          "internalType": "uint256",
          "name": "yesVotes",
          "type": "uint256"
        },
        {
          "internalType": "uint256",
          "name": "noVotes",
          "type": "uint256"
        },
        {
          "internalType": "uint256",
          "name": "createdAt",
          "type": "uint256"
        },
        {
          "internalType": "uint256",
          "name": "deadline",
          "type": "uint256"
        },
        {
          "internalType": "bool",
          "name": "executed",
          "type": "bool"
        }
      ],
      "stateMutability": "view",
      "type": "function"
    },
    {
      "inputs": [
        {
          "internalType": "uint256",
          "name": "_proposalId",
          "type": "uint256"
        },
        {
          "internalType": "address",
          "name": "_voter",
          "type": "address"
        }
      ],
      "name": "hasVoted",
      "outputs": [
        {
          "internalType": "bool",
          "name": "",
          "type": "bool"
        }
      ],
      "stateMutability": "view",
      "type": "function"
    },
    {
      "inputs": [
        {
          "internalType": "address",
          "name": "",
          "type": "address"
        }
      ],
      "name": "members",
      "outputs": [
        {
          "internalType": "bool",
          "name": "isRegistered",
          "type": "bool"
        },
        {
          "internalType": "uint256",
          "name": "joinedAt",
          "type": "uint256"
        },
        {
          "internalType": "uint256",
          "name": "civicPoints",
          "type": "uint256"
        },
        {
          "internalType": "uint256",
          "name": "proposalsCreated",
          "type": "uint256"
        },
        {
          "internalType": "uint256",
          "name": "votescast",
          "type": "uint256"
        },
        {
          "internalType": "uint256",
          "name": "milestonesVerified",
          "type": "uint256"
        }
      ],
      "stateMutability": "view",
      "type": "function"
    },
    {
      "inputs": [],
      "name": "milestoneCount",
      "outputs": [
        {
          "internalType": "uint256",
          "name": "",
          "type": "uint256"
        }
      ],
      "stateMutability": "view",
      "type": "function"
    },
    {
      "inputs": [
        {
          "internalType": "uint256",
          "name": "",
          "type": "uint256"
        }
      ],
      "name": "milestones",
      "outputs": [
        {
          "internalType": "uint256",
          "name": "id",
          "type": "uint256"
        },
        {
          "internalType": "uint256",
          "name": "proposalId",
          "type": "uint256"
        },
        {
          "internalType": "string",
          "name": "title",
          "type": "string"
        },
        {
          "internalType": "string",
          "name": "description",
          "type": "string"
        },
        {
          "internalType": "bool",
          "name": "verified",
          "type": "bool"
        },
        {
          "internalType": "address",
          "name": "verifier",
          "type": "address"
        },
        {
          "internalType": "uint256",
          "name": "verifiedAt",
          "type": "uint256"
        },
        {
          "internalType": "uint256",
          "name": "fundsToRelease",
          "type": "uint256"
        },
        {
          "internalType": "bool",
          "name": "fundsReleased",
          "type": "bool"
        }
      ],
      "stateMutability": "view",
      "type": "function"
    },
    {
      "inputs": [],
      "name": "owner",
      "outputs": [
        {
          "internalType": "address",
          "name": "",
          "type": "address"
        }
      ],
      "stateMutability": "view",
      "type": "function"
    },
    {
      "inputs": [],
      "name": "proposalCount",
      "outputs": [
        {
          "internalType": "uint256",
          "name": "",
          "type": "uint256"
        }
      ],
      "stateMutability": "view",
      "type": "function"
    },
    {
      "inputs": [
        {
          "internalType": "uint256",
          "name": "",
          "type": "uint256"
        },
        {
          "internalType": "address",
          "name": "",
          "type": "address"
        }
      ],
      "name": "proposalVotes",
      "outputs": [
        {
          "internalType": "bool",
          "name": "",
          "type": "bool"
        }
      ],
      "stateMutability": "view",
      "type": "function"
    },
    {
      "inputs": [
        {
          "internalType": "uint256",
          "name": "",
          "type": "uint256"
        }
      ],
      "name": "proposals",
      "outputs": [
        {
          "internalType": "uint256",
          "name": "id",
          "type": "uint256"
        },
        {
          "internalType": "string",
          "name": "title",
          "type": "string"
        },
        {
          "internalType": "string",
          "name": "description",
          "type": "string"
        },
        {
          "internalType": "uint256",
          "name": "amount",
          "type": "uint256"
        },
        {
          "internalType": "address",
          "name": "proposer",
          "type": "address"
        },
        {
          "internalType": "uint256",
          "name": "yesVotes",
          "type": "uint256"
        },
        {
          "internalType": "uint256",
          "name": "noVotes",
          "type": "uint256"
        },
        {
          "internalType": "uint256",
          "name": "createdAt",
          "type": "uint256"
        },
        {
          "internalType": "uint256",
          "name": "deadline",
          "type": "uint256"
        },
        {
          "internalType": "bool",
          "name": "executed",
          "type": "bool"
        }
      ],
      "stateMutability": "view",
      "type": "function"
    },
    {
      "inputs": [],
      "name": "registerMember",
      "outputs": [],
      "stateMutability": "nonpayable",
      "type": "function"
    },
    {
      "inputs": [],
      "name": "renounceOwnership",
      "outputs": [],
      "stateMutability": "nonpayable",
      "type": "function"
    },
    {
      "inputs": [],
      "name": "spentAmount",
      "outputs": [
        {
          "internalType": "uint256",
          "name": "",
          "type": "uint256"
        }
      ],
      "stateMutability": "view",
      "type": "function"
    },
    {
      "inputs": [],
      "name": "totalBudget",
      "outputs": [
        {
          "internalType": "uint256",
          "name": "",
          "type": "uint256"
        }
      ],
      "stateMutability": "view",
      "type": "function"
    },
    {
      "inputs": [
        {
          "internalType": "address",
          "name": "newOwner",
          "type": "address"
        }
      ],
      "name": "transferOwnership",
      "outputs": [],
      "stateMutability": "nonpayable",
      "type": "function"
    },
    {
      "inputs": [
        {
          "internalType": "uint256",
          "name": "_newBudget",
          "type": "uint256"
        }
      ],
      "name": "updateBudget",
      "outputs": [],
      "stateMutability": "nonpayable",
      "type": "function"
    },
    {
      "inputs": [
        {
          "internalType": "uint256",
          "name": "_milestoneId",
          "type": "uint256"
        },
        {
          "internalType": "bool",
          "name": "_approved",
          "type": "bool"
        }
      ],
      "name": "verifyMilestone",
      "outputs": [],
      "stateMutability": "nonpayable",
      "type": "function"
    },
    {
      "inputs": [
        {
          "internalType": "uint256",
          "name": "_proposalId",
          "type": "uint256"
        },
        {
          "internalType": "bool",
          "name": "_support",
          "type": "bool"
        }
      ],
      "name": "vote",
      "outputs": [],
      "stateMutability": "nonpayable",
      "type": "function"
    },
    {
      "stateMutability": "payable",
      "type": "receive"
    }
  ],
  "bytecode": "0x60806040523480156200001157600080fd5b5060405162002218380380620022188339810160408190526200003491620000fa565b33806200005b57604051631e4fbdf760e01b81526000600482015260240160405180910390fd5b6200006681620000aa565b506001805560088190556040518181527fa0f8c4bbabac2904a1933feee4b665bc08f3d75d616bd9045f707c558dbdfc319060200160405180910390a15062000114565b600080546001600160a01b038381166001600160a01b0319831681178455604051919092169283917f8be0079c531659141344cd1fd0a4f28419497f9722a3daafe3b4186f6b6457e09190a35050565b6000602082840312156200010d57600080fd5b5051919050565b6120f480620001246000396000f3fe6080604052600436106101bb5760003560e01c80638da5cb5b116100ec578063caf89ddb1161008a578063e6fa51ed11610064578063e6fa51ed1461056e578063e89e4ed61461059e578063f2fde38b146105be578063f55a368f146105de57600080fd5b8063caf89ddb14610523578063da35c66414610543578063db2e21bc1461055957600080fd5b8063b1610d7e116100c6578063b1610d7e146104b6578063c78da39a146104cd578063c7f758a8146104e3578063c9d27afe1461050357600080fd5b80638da5cb5b1461043e5780638e1f6a2c146104665780639756b0cf146104a157600080fd5b8063438596321161015957806355134abf1161013357806355134abf146103ea57806360f8dd7e146103ff57806366769e3914610414578063715018a61461042957600080fd5b8063438596321461038457806345f51600146103b457806351e072d6146103ca57600080fd5b80630ce0ebf4116101955780630ce0ebf4146102ad5780630d61b519146102cf5780632442e1cb146102ef5780632ada25961461032457600080fd5b8063013cf08b146101c75780630681ca551461020657806308ae4b0c1461022a57600080fd5b366101c257005b600080fd5b3480156101d357600080fd5b506101e76101e2366004611b4e565b6105f3565b6040516101fd9a99989796959493929190611bad565b60405180910390f35b34801561021257600080fd5b5061021c60075481565b6040519081526020016101fd565b34801561023657600080fd5b5061027e610245366004611c3d565b600460208190526000918252604090912080546001820154600283015460038401549484015460059094015460ff909316949193909286565b6040805196151587526020870195909552938501929092526060840152608083015260a082015260c0016101fd565b3480156102b957600080fd5b506102cd6102c8366004611d02565b61075f565b005b3480156102db57600080fd5b506102cd6102ea366004611b4e565b610a7b565b3480156102fb57600080fd5b5061030f61030a366004611b4e565b610c10565b6040516101fd99989796959493929190611d6f565b34801561033057600080fd5b5061027e61033f366004611c3d565b6001600160a01b0316600090815260046020819052604090912080546001820154600283015460038401549484015460059094015460ff909316959194909390929091565b34801561039057600080fd5b506103a461039f366004611ddc565b610e07565b60405190151581526020016101fd565b3480156103c057600080fd5b5061021c60095481565b3480156103d657600080fd5b506102cd6103e5366004611b4e565b610e65565b3480156103f657600080fd5b5061021c600f81565b34801561040b57600080fd5b506102cd610f0e565b34801561042057600080fd5b5061021c603281565b34801561043557600080fd5b506102cd61100c565b34801561044a57600080fd5b506000546040516001600160a01b0390911681526020016101fd565b34801561047257600080fd5b506103a4610481366004611ddc565b600560209081526000928352604080842090915290825290205460ff1681565b3480156104ad57600080fd5b5061021c600a81565b3480156104c257600080fd5b5061021c62093a8081565b3480156104d957600080fd5b5061021c60085481565b3480156104ef57600080fd5b506101e76104fe366004611b4e565b611020565b34801561050f57600080fd5b506102cd61051e366004611e08565b6111f1565b34801561052f57600080fd5b506102cd61053e366004611e08565b61144d565b34801561054f57600080fd5b5061021c60065481565b34801561056557600080fd5b506102cd611706565b34801561057a57600080fd5b5061058361174b565b604080519384526020840192909252908201526060016101fd565b3480156105aa57600080fd5b5061030f6105b9366004611b4e565b611771565b3480156105ca57600080fd5b506102cd6105d9366004611c3d565b6118da565b3480156105ea57600080fd5b5061021c601481565b6002602052600090815260409020805460018201805491929161061590611e3d565b80601f016020809104026020016040519081016040528092919081815260200182805461064190611e3d565b801561068e5780601f106106635761010080835404028352916020019161068e565b820191906000526020600020905b81548152906001019060200180831161067157829003601f168201915b5050505050908060020180546106a390611e3d565b80601f01602080910402602001604051908101604052809291908181526020018280546106cf90611e3d565b801561071c5780601f106106f15761010080835404028352916020019161071c565b820191906000526020600020905b8154815290600101906020018083116106ff57829003601f168201915b50505050600383015460048401546005850154600686015460078701546008880154600990980154969794966001600160a01b0390941695509193909260ff168a565b3360009081526004602052604090205460ff166107975760405162461bcd60e51b815260040161078e90611e77565b60405180910390fd5b60008351116107e05760405162461bcd60e51b81526020600482015260156024820152745469746c652063616e6e6f7420626520656d70747960581b604482015260640161078e565b60008251116108315760405162461bcd60e51b815260206004820152601b60248201527f4465736372697074696f6e2063616e6e6f7420626520656d7074790000000000604482015260640161078e565b600081116108815760405162461bcd60e51b815260206004820152601d60248201527f416d6f756e74206d7573742062652067726561746572207468616e2030000000604482015260640161078e565b6009546008546108919190611ec4565b8111156108d65760405162461bcd60e51b8152602060048201526013602482015272125b9cdd59999a58da595b9d08189d5919d95d606a1b604482015260640161078e565b336000908152600460205260409020600201546032111561094e5760405162461bcd60e51b815260206004820152602c60248201527f496e73756666696369656e7420636976696320706f696e747320746f2063726560448201526b185d19481c1c9bdc1bdcd85b60a21b606482015260840161078e565b6006805490600061095e83611edd565b90915550506006546000818152600260205260409020908155600181016109858582611f45565b50600281016109948482611f45565b50600381018290556004810180546001600160a01b0319163317905542600782018190556109c69062093a8090612005565b600882015560098101805460ff191690553360009081526004602052604081206003018054916109f583611edd565b9190505550610a2f33601460405180604001604052806011815260200170283937b837b9b0b61021b932b0ba34b7b760791b815250611915565b336001600160a01b03166006547f98120a6aaa04295520ab4e01c6c1235dd316e822cc9ff31db7b3f197366d18bd8685604051610a6d929190612018565b60405180910390a350505050565b80600081118015610a8e57506006548111155b610aaa5760405162461bcd60e51b815260040161078e9061203a565b600082815260026020526040902060088101544211610b0b5760405162461bcd60e51b815260206004820152601760248201527f566f74696e6720706572696f64206e6f7420656e646564000000000000000000604482015260640161078e565b600981015460ff1615610b5c5760405162461bcd60e51b8152602060048201526019602482015278141c9bdc1bdcd85b08185b1c9958591e48195e1958dd5d1959603a1b604482015260640161078e565b60098101805460ff1916600117905560068101546005820154118015610bce57610bce8460405180604001604052806012815260200171283937b532b1ba1024b734ba34b0ba34b7b760711b81525060405180606001604052806023815260200161209c60239139856003015461198f565b837f948f4a9cd986f1118c3fbd459f7a22b23c0693e1ca3ef06a6a8be5aa7d39cc0382604051610c02911515815260200190565b60405180910390a250505050565b600080606080600080600080600089600081118015610c3157506007548111155b610c745760405162461bcd60e51b8152602060048201526014602482015273125b9d985b1a59081b5a5b195cdd1bdb9948125160621b604482015260640161078e565b60008b815260036020819052604090912080546001820154600483015460058401546006850154600786015460028701805497989697959690959089019460ff808216956101009092046001600160a01b031694919391929116908790610cda90611e3d565b80601f0160208091040260200160405190810160405280929190818152602001828054610d0690611e3d565b8015610d535780601f10610d2857610100808354040283529160200191610d53565b820191906000526020600020905b815481529060010190602001808311610d3657829003601f168201915b50505050509650858054610d6690611e3d565b80601f0160208091040260200160405190810160405280929190818152602001828054610d9290611e3d565b8015610ddf5780601f10610db457610100808354040283529160200191610ddf565b820191906000526020600020905b815481529060010190602001808311610dc257829003601f168201915b505050505095509a509a509a509a509a509a509a509a509a5050509193959799909294969850565b600082600081118015610e1c57506006548111155b610e385760405162461bcd60e51b815260040161078e9061203a565b505060009182526005602090815260408084206001600160a01b0393909316845291905290205460ff1690565b610e6d611ad1565b600954811015610ed35760405162461bcd60e51b815260206004820152602b60248201527f4e6577206275646765742063616e6e6f74206265206c657373207468616e207360448201526a1c195b9d08185b5bdd5b9d60aa1b606482015260840161078e565b60088190556040518181527fa0f8c4bbabac2904a1933feee4b665bc08f3d75d616bd9045f707c558dbdfc319060200160405180910390a150565b3360009081526004602052604090205460ff1615610f635760405162461bcd60e51b8152602060048201526012602482015271105b1c9958591e481c9959da5cdd195c995960721b604482015260640161078e565b6040805160c08101825260018082524260208084018281526000858701818152606087018281526080880183815260a08901848152338086526004808952958c90209a518b5460ff1916901515178b559551988a019890985591516002890155516003880155519086015592516005909401939093559251928352917f67e0244e28040fec15240cd4b6c04c776a2a0278caef23b59e8ada1df31f7689910160405180910390a2565b611014611ad1565b61101e6000611afe565b565b600060608060008060008060008060008a60008111801561104357506006548111155b61105f5760405162461bcd60e51b815260040161078e9061203a565b60008c815260026020819052604090912080546003820154600483015460058401546006850154600786015460088701546009880154600189018054999a989990988b0197966001600160a01b0316959493929160ff169089906110c290611e3d565b80601f01602080910402602001604051908101604052809291908181526020018280546110ee90611e3d565b801561113b5780601f106111105761010080835404028352916020019161113b565b820191906000526020600020905b81548152906001019060200180831161111e57829003601f168201915b5050505050985087805461114e90611e3d565b80601f016020809104026020016040519081016040528092919081815260200182805461117a90611e3d565b80156111c75780601f1061119c576101008083540402835291602001916111c7565b820191906000526020600020905b8154815290600101906020018083116111aa57829003601f168201915b505050505097509b509b509b509b509b509b509b509b509b509b5050509193959799509193959799565b3360009081526004602052604090205460ff166112205760405162461bcd60e51b815260040161078e90611e77565b8160008111801561123357506006548111155b61124f5760405162461bcd60e51b815260040161078e9061203a565b600083815260026020526040902060088101544211156112b15760405162461bcd60e51b815260206004820152601760248201527f566f74696e6720706572696f642068617320656e646564000000000000000000604482015260640161078e565b600084815260056020908152604080832033845290915290205460ff161561131b5760405162461bcd60e51b815260206004820152601e60248201527f416c726561647920766f746564206f6e20746869732070726f706f73616c0000604482015260640161078e565b600981015460ff161561136c5760405162461bcd60e51b8152602060048201526019602482015278141c9bdc1bdcd85b08185b1c9958591e48195e1958dd5d1959603a1b604482015260640161078e565b60008481526005602090815260408083203384529091529020805460ff1916600117905582156113b2576005810180549060006113a883611edd565b91905055506113ca565b6006810180549060006113c483611edd565b91905055505b3360009081526004602081905260408220018054916113e883611edd565b919050555061141733600a60405180604001604052806006815260200165566f74696e6760d01b815250611915565b6040518315158152339085907fe71fcdac32df1877c1700e7bda2a03157e20993363a28fc35ac495cefc76e4d490602001610a6d565b3360009081526004602052604090205460ff1661147c5760405162461bcd60e51b815260040161078e90611e77565b8160008111801561148f57506007548111155b6114d25760405162461bcd60e51b8152602060048201526014602482015273125b9d985b1a59081b5a5b195cdd1bdb9948125160621b604482015260640161078e565b6000838152600360205260409020600481015460ff16156115355760405162461bcd60e51b815260206004820152601a60248201527f4d696c6573746f6e6520616c7265616479207665726966696564000000000000604482015260640161078e565b600481015461010090046001600160a01b0316156115a05760405162461bcd60e51b815260206004820152602260248201527f4d696c6573746f6e6520766572696669636174696f6e20696e2070726f677265604482015261737360f01b606482015260840161078e565b6004810180546001600160a81b03191684158015610100600160a81b0319169190911761010033021790915542600583015583906115e35750600781015460ff16155b156116735760078101805460ff1916600117905560068101546009805460009061160e908490612005565b9091555050600681015460018201546000908152600260209081526040918290206004015482519384526001600160a01b03169083015285917f807158a396c8ce26fb6a4a44930e1b49876133ba7806dbaac491ea4713e4515e910160405180910390a25b33600090815260046020526040812060050180549161169183611edd565b91905055506116d033600f6040518060400160405280601681526020017526b4b632b9ba37b732902b32b934b334b1b0ba34b7b760511b815250611915565b6040518315158152339085907f368714df57533927d5f3c402cca2d3f84955ac829dcf218879c8e842443c32db90602001610a6d565b61170e611ad1565b600080546040516001600160a01b03909116914780156108fc02929091818181858888f19350505050158015611748573d6000803e3d6000fd5b50565b60008060006008546009546009546008546117669190611ec4565b925092509250909192565b6003602052600090815260409020805460018201546002830180549293919261179990611e3d565b80601f01602080910402602001604051908101604052809291908181526020018280546117c590611e3d565b80156118125780601f106117e757610100808354040283529160200191611812565b820191906000526020600020905b8154815290600101906020018083116117f557829003601f168201915b50505050509080600301805461182790611e3d565b80601f016020809104026020016040519081016040528092919081815260200182805461185390611e3d565b80156118a05780601f10611875576101008083540402835291602001916118a0565b820191906000526020600020905b81548152906001019060200180831161188357829003601f168201915b50505050600483015460058401546006850154600790950154939460ff808416956101009094046001600160a01b03169450919290911689565b6118e2611ad1565b6001600160a01b03811661190c57604051631e4fbdf760e01b81526000600482015260240161078e565b61174881611afe565b6001600160a01b03831660009081526004602052604081206002018054849290611940908490612005565b92505081905550826001600160a01b03167f691732b48450206deae85d4d59f6445959eed6428521000446038af566b543e78383604051611982929190612067565b60405180910390a2505050565b6007805490600061199f83611edd565b9091555050604080516101208101825260075480825260208083018881528385018881526060850188905260006080860181905260a0860181905260c0860181905260e0860188905261010086018190529384526003909252939091208251815592516001840155519091906002820190611a1a9082611f45565b5060608201516003820190611a2f9082611f45565b50608082015160048201805460a08501516001600160a81b0319909116921515610100600160a81b031916929092176101006001600160a01b03909316830217905560c0830151600583015560e08301516006830155909101516007918201805460ff1916911515919091179055546040518591907fd787e9c0c2da998824b61d1cc3a43aea77cc62df657fe6ecd0a43e9d1b59cb8890610a6d908790612088565b6000546001600160a01b0316331461101e5760405163118cdaa760e01b815233600482015260240161078e565b600080546001600160a01b038381166001600160a01b0319831681178455604051919092169283917f8be0079c531659141344cd1fd0a4f28419497f9722a3daafe3b4186f6b6457e09190a35050565b600060208284031215611b6057600080fd5b5035919050565b6000815180845260005b81811015611b8d57602081850181015186830182015201611b71565b506000602082860101526020601f19601f83011685010191505092915050565b60006101408c8352806020840152611bc78184018d611b67565b90508281036040840152611bdb818c611b67565b606084019a909a5250506001600160a01b0396909616608087015260a086019490945260c085019290925260e08401526101008301521515610120909101529392505050565b80356001600160a01b0381168114611c3857600080fd5b919050565b600060208284031215611c4f57600080fd5b611c5882611c21565b9392505050565b634e487b7160e01b600052604160045260246000fd5b600082601f830112611c8657600080fd5b813567ffffffffffffffff80821115611ca157611ca1611c5f565b604051601f8301601f19908116603f01168101908282118183101715611cc957611cc9611c5f565b81604052838152866020858801011115611ce257600080fd5b836020870160208301376000602085830101528094505050505092915050565b600080600060608486031215611d1757600080fd5b833567ffffffffffffffff80821115611d2f57600080fd5b611d3b87838801611c75565b94506020860135915080821115611d5157600080fd5b50611d5e86828701611c75565b925050604084013590509250925092565b60006101208b83528a6020840152806040840152611d8f8184018b611b67565b90508281036060840152611da3818a611b67565b971515608084015250506001600160a01b039490941660a085015260c084019290925260e0830152151561010090910152949350505050565b60008060408385031215611def57600080fd5b82359150611dff60208401611c21565b90509250929050565b60008060408385031215611e1b57600080fd5b8235915060208301358015158114611e3257600080fd5b809150509250929050565b600181811c90821680611e5157607f821691505b602082108103611e7157634e487b7160e01b600052602260045260246000fd5b50919050565b6020808252601b908201527f4d75737420626520612072656769737465726564206d656d6265720000000000604082015260600190565b634e487b7160e01b600052601160045260246000fd5b81810381811115611ed757611ed7611eae565b92915050565b600060018201611eef57611eef611eae565b5060010190565b601f821115611f4057600081815260208120601f850160051c81016020861015611f1d5750805b601f850160051c820191505b81811015611f3c57828155600101611f29565b5050505b505050565b815167ffffffffffffffff811115611f5f57611f5f611c5f565b611f7381611f6d8454611e3d565b84611ef6565b602080601f831160018114611fa85760008415611f905750858301515b600019600386901b1c1916600185901b178555611f3c565b600085815260208120601f198616915b82811015611fd757888601518255948401946001909101908401611fb8565b5085821015611ff55787850151600019600388901b60f8161c191681555b5050505050600190811b01905550565b80820180821115611ed757611ed7611eae565b60408152600061202b6040830185611b67565b90508260208301529392505050565b602080825260139082015272125b9d985b1a59081c1c9bdc1bdcd85b081251606a1b604082015260600190565b8281526040602082015260006120806040830184611b67565b949350505050565b602081526000611c586020830184611b6756fe496e697469616c206d696c6573746f6e6520666f722070726f6a656374207365747570a26469706673582212201cb8be34026110bd604240cd401703964bc9f5914dbff6f4f0badd039e707c6964736f6c63430008140033",
  "linkReferences": {},
  "deployedLinkReferences": {}
}